{
  "contractName": "Piper",
  "abi": [
    {
      "anonymous": false,
      "inputs": [
        {
          "indexed": false,
          "name": "owner",
          "type": "address"
        },
        {
          "components": [
            {
              "name": "updated",
              "type": "uint32"
            },
            {
              "name": "size",
              "type": "uint32"
            },
            {
              "name": "version",
              "type": "string"
            },
            {
              "name": "category",
              "type": "string"
            },
            {
              "name": "name",
              "type": "string"
            },
            {
              "name": "hash",
              "type": "string"
            },
            {
              "name": "crx",
              "type": "string"
            },
            {
              "name": "iconURL",
              "type": "string"
            },
            {
              "name": "developer",
              "type": "string"
            },
            {
              "name": "overview",
              "type": "string"
            }
          ],
          "indexed": false,
          "name": "extension",
          "type": "tuple"
        }
      ],
      "name": "Extension",
      "type": "event",
      "_alias": "Extension"
    },
    {
      "anonymous": false,
      "inputs": [
        {
          "indexed": false,
          "name": "hash",
          "type": "string"
        },
        {
          "indexed": false,
          "name": "version",
          "type": "string"
        },
        {
          "indexed": false,
          "name": "crx",
          "type": "string"
        },
        {
          "indexed": false,
          "name": "size",
          "type": "uint32"
        },
        {
          "indexed": false,
          "name": "updated",
          "type": "uint32"
        }
      ],
      "name": "ExtensionVersion",
      "type": "event",
      "_alias": "ExtensionVersion"
    },
    {
      "anonymous": false,
      "inputs": [
        {
          "indexed": false,
          "name": "hash",
          "type": "string"
        },
        {
          "indexed": false,
          "name": "rating",
          "type": "uint32"
        },
        {
          "indexed": false,
          "name": "review",
          "type": "string"
        },
        {
          "indexed": false,
          "name": "updated",
          "type": "uint32"
        },
        {
          "indexed": false,
          "name": "reviewer",
          "type": "address"
        }
      ],
      "name": "ExtensionReview",
      "type": "event",
      "_alias": "ExtensionReview"
    },
    {
      "constant": true,
      "inputs": [
        {
          "name": "_hash",
          "type": "string"
        }
      ],
      "name": "isExtension",
      "outputs": [
        {
          "name": "",
          "type": "bool"
        }
      ],
      "payable": false,
      "stateMutability": "view",
      "type": "function"
    },
    {
      "constant": false,
      "inputs": [
        {
          "components": [
            {
              "name": "updated",
              "type": "uint32"
            },
            {
              "name": "size",
              "type": "uint32"
            },
            {
              "name": "version",
              "type": "string"
            },
            {
              "name": "category",
              "type": "string"
            },
            {
              "name": "name",
              "type": "string"
            },
            {
              "name": "hash",
              "type": "string"
            },
            {
              "name": "crx",
              "type": "string"
            },
            {
              "name": "iconURL",
              "type": "string"
            },
            {
              "name": "developer",
              "type": "string"
            },
            {
              "name": "overview",
              "type": "string"
            }
          ],
          "name": "_extension",
          "type": "tuple"
        }
      ],
      "name": "createNewExtension",
      "outputs": [],
      "payable": false,
      "stateMutability": "nonpayable",
      "type": "function"
    },
    {
      "constant": false,
      "inputs": [
        {
          "name": "_hash",
          "type": "string"
        },
        {
          "name": "_rating",
          "type": "uint32"
        },
        {
          "name": "_review",
          "type": "string"
        },
        {
          "name": "_updated",
          "type": "uint32"
        }
      ],
      "name": "addReview",
      "outputs": [],
      "payable": false,
      "stateMutability": "nonpayable",
      "type": "function"
    }
  ],
  "bytecode": "0x608060405234801561001057600080fd5b50610ea7806100206000396000f3fe608060405234801561001057600080fd5b50600436106100415760003560e01c806386ddf9e314610046578063c829274014610062578063fa16b9b61461007e575b600080fd5b610060600480360361005b919081019061079d565b6100ae565b005b61007c60048036036100779190810190610830565b610105565b005b6100986004803603610093919081019061075c565b61040c565b6040516100a59190610bc8565b60405180910390f35b6100b78461040c565b6100c057600080fd5b7f3d87a5fbb78cbdd86c0d95530d5f786132002bcfa3a26ee4b8e4039f7857c27384848484336040516100f7959493929190610be3565b60405180910390a150505050565b6101128160a0015161040c565b61027e57806040015160008260a0015160405161012f9190610b6a565b90815260200160405180910390209080519060200190610150929190610448565b503360018260a001516040516101669190610b6a565b908152602001604051809103902060006101000a81548173ffffffffffffffffffffffffffffffffffffffff021916908373ffffffffffffffffffffffffffffffffffffffff160217905550600160028260a001516040516101c89190610b6a565b908152602001604051809103902060006101000a81548160ff0219169083151502179055507f5a97a79abc78e4c686a2b69adc296b31939a2d367f6ce9856e4760a765414a0e338260405161021e929190610b98565b60405180910390a17f503aa45a3aeccf5c0708843cbf32d3315ad9a5790e5cd536f04edb733a349f998160a0015182604001518360c0015184602001518560000151604051610271959493929190610c44565b60405180910390a1610409565b60018160a001516040516102929190610b6a565b908152602001604051809103902060009054906101000a900473ffffffffffffffffffffffffffffffffffffffff1673ffffffffffffffffffffffffffffffffffffffff163373ffffffffffffffffffffffffffffffffffffffff16146102f857600080fd5b60008160a0015160405161030c9190610b6a565b90815260200160405180910390206040516103279190610b53565b6040518091039020816040015180519060200120146103cf57806040015160008260a001516040516103599190610b6a565b9081526020016040518091039020908051906020019061037a929190610448565b507f503aa45a3aeccf5c0708843cbf32d3315ad9a5790e5cd536f04edb733a349f998160a0015182604001518360c00151846020015185600001516040516103c6959493929190610c44565b60405180910390a15b7f5a97a79abc78e4c686a2b69adc296b31939a2d367f6ce9856e4760a765414a0e3382604051610400929190610b98565b60405180910390a15b50565b6000600115156002836040516104229190610b81565b908152602001604051809103902060009054906101000a900460ff161515149050919050565b828054600181600116156101000203166002900490600052602060002090601f016020900481019282601f1061048957805160ff19168380011785556104b7565b828001600101855582156104b7579182015b828111156104b657825182559160200191906001019061049b565b5b5090506104c491906104c8565b5090565b6104ea91905b808211156104e65760008160009055506001016104ce565b5090565b90565b600082601f8301126104fe57600080fd5b813561051161050c82610cd9565b610cac565b9150808252602083016020830185838301111561052d57600080fd5b610538838284610e03565b50505092915050565b600082601f83011261055257600080fd5b813561056561056082610d05565b610cac565b9150808252602083016020830185838301111561058157600080fd5b61058c838284610e03565b50505092915050565b600061014082840312156105a857600080fd5b6105b3610140610cac565b905060006105c384828501610747565b60008301525060206105d784828501610747565b602083015250604082013567ffffffffffffffff8111156105f757600080fd5b610603848285016104ed565b604083015250606082013567ffffffffffffffff81111561062357600080fd5b61062f848285016104ed565b606083015250608082013567ffffffffffffffff81111561064f57600080fd5b61065b848285016104ed565b60808301525060a082013567ffffffffffffffff81111561067b57600080fd5b610687848285016104ed565b60a08301525060c082013567ffffffffffffffff8111156106a757600080fd5b6106b3848285016104ed565b60c08301525060e082013567ffffffffffffffff8111156106d357600080fd5b6106df848285016104ed565b60e08301525061010082013567ffffffffffffffff81111561070057600080fd5b61070c848285016104ed565b6101008301525061012082013567ffffffffffffffff81111561072e57600080fd5b61073a848285016104ed565b6101208301525092915050565b60008135905061075681610e56565b92915050565b60006020828403121561076e57600080fd5b600082013567ffffffffffffffff81111561078857600080fd5b61079484828501610541565b91505092915050565b600080600080608085870312156107b357600080fd5b600085013567ffffffffffffffff8111156107cd57600080fd5b6107d987828801610541565b94505060206107ea87828801610747565b935050604085013567ffffffffffffffff81111561080757600080fd5b61081387828801610541565b925050606061082487828801610747565b91505092959194509250565b60006020828403121561084257600080fd5b600082013567ffffffffffffffff81111561085c57600080fd5b61086884828501610595565b91505092915050565b61087a81610dcd565b82525050565b61088981610d91565b82525050565b6000815460018116600081146108ac57600181146108d157610915565b607f60028304166108bd8187610d59565b955060ff1983168652808601935050610915565b600282046108df8187610d59565b95506108ea85610d31565b60005b8281101561090c578154818901526001820191506020810190506108ed565b82880195505050505b505092915050565b600061092882610d4e565b6109328185610d75565b9350610942818560208601610e12565b61094b81610e45565b840191505092915050565b600061096182610d4e565b61096b8185610d86565b935061097b818560208601610e12565b80840191505092915050565b600061099282610d43565b61099c8185610d64565b93506109ac818560208601610e12565b6109b581610e45565b840191505092915050565b60006109cb82610d43565b6109d58185610d75565b93506109e5818560208601610e12565b6109ee81610e45565b840191505092915050565b6000610a0482610d43565b610a0e8185610d86565b9350610a1e818560208601610e12565b80840191505092915050565b600061014083016000830151610a436000860182610b35565b506020830151610a566020860182610b35565b5060408301518482036040860152610a6e8282610987565b91505060608301518482036060860152610a888282610987565b91505060808301518482036080860152610aa28282610987565b91505060a083015184820360a0860152610abc8282610987565b91505060c083015184820360c0860152610ad68282610987565b91505060e083015184820360e0860152610af08282610987565b915050610100830151848203610100860152610b0c8282610987565b915050610120830151848203610120860152610b288282610987565b9150508091505092915050565b610b3e81610dbd565b82525050565b610b4d81610dbd565b82525050565b6000610b5f828461088f565b915081905092915050565b6000610b7682846109f9565b915081905092915050565b6000610b8d8284610956565b915081905092915050565b6000604082019050610bad6000830185610871565b8181036020830152610bbf8184610a2a565b90509392505050565b6000602082019050610bdd6000830184610880565b92915050565b600060a0820190508181036000830152610bfd818861091d565b9050610c0c6020830187610b44565b8181036040830152610c1e818661091d565b9050610c2d6060830185610b44565b610c3a6080830184610871565b9695505050505050565b600060a0820190508181036000830152610c5e81886109c0565b90508181036020830152610c7281876109c0565b90508181036040830152610c8681866109c0565b9050610c956060830185610b44565b610ca26080830184610b44565b9695505050505050565b6000604051905081810181811067ffffffffffffffff82111715610ccf57600080fd5b8060405250919050565b600067ffffffffffffffff821115610cf057600080fd5b601f19601f8301169050602081019050919050565b600067ffffffffffffffff821115610d1c57600080fd5b601f19601f8301169050602081019050919050565b60008160005260206000209050919050565b600081519050919050565b600081519050919050565b600081905092915050565b600082825260208201905092915050565b600082825260208201905092915050565b600081905092915050565b60008115159050919050565b600073ffffffffffffffffffffffffffffffffffffffff82169050919050565b600063ffffffff82169050919050565b6000610dd882610ddf565b9050919050565b6000610dea82610df1565b9050919050565b6000610dfc82610d9d565b9050919050565b82818337600083830152505050565b60005b83811015610e30578082015181840152602081019050610e15565b83811115610e3f576000848401525b50505050565b6000601f19601f8301169050919050565b610e5f81610dbd565b8114610e6a57600080fd5b5056fea265627a7a72305820a7222d724dbf598d17c53a119b96f0683dfd5a0e00c46fa4565c074b36ea7d796c6578706572696d656e74616cf50037",
  "source": "pragma solidity >=0.5.0 <0.6.0;\npragma experimental ABIEncoderV2;\n\ncontract Piper {\n  struct Ext {\n    uint32 updated;\n    uint32 size;\n    string version;\n    string category;\n    string name;\n    string hash;\n    string crx;\n    string iconURL;\n    string developer;\n    string overview;\n  }\n\n  mapping(string => string) versions;\n  mapping(string => address) owner;\n  mapping(string => bool) hasExtension;\n\n  function isExtension(string memory _hash) public view returns(bool) {\n    return hasExtension[_hash] == true;\n  }\n\n  event Extension(address owner, Ext extension);\n  event ExtensionVersion(string hash, string version, string crx, uint32 size, uint32 updated);\n  event ExtensionReview(string hash, uint32 rating, string review, uint32 updated, address reviewer);\n\n  function createNewExtension(Ext memory _extension) public {\n    if (!isExtension(_extension.hash)) {\n      // Create new extension.\n      versions[_extension.hash] = _extension.version;\n      owner[_extension.hash] = msg.sender;\n      hasExtension[_extension.hash] = true;\n\n      emit Extension(msg.sender, _extension);\n      emit ExtensionVersion(_extension.hash, _extension.version, _extension.crx, _extension.size, _extension.updated);\n    } else {\n      // Updating the extension.\n\n      // Check if extension owner is the one trying to edit it.\n      require(msg.sender == owner[_extension.hash]);\n\n      // Check whether they are updating the version.\n      if (keccak256(bytes(_extension.version)) != keccak256(bytes(versions[_extension.hash]))) {\n        versions[_extension.hash] = _extension.version;\n\n        emit ExtensionVersion(_extension.hash, _extension.version, _extension.crx, _extension.size, _extension.updated);\n      }\n\n      emit Extension(msg.sender, _extension);\n    }\n  }\n\n  function addReview(string memory _hash, uint32 _rating, string memory _review, uint32 _updated) public {\n    require (isExtension(_hash));\n\n    emit ExtensionReview(_hash, _rating, _review, _updated, msg.sender);\n  }\n}\n",
  "sourcePath": "/home/robin/piper/contracts/Piper.sol",
  "compiler": {
    "name": "solc",
    "version": "0.5.8+commit.23d335f2.Emscripten.clang"
  },
  "schemaVersion": "3.0.11",
  "updatedAt": "2019-07-10T13:35:19.592Z",
  "devdoc": {
    "methods": {}
  },
  "userdoc": {
    "methods": {}
  }
}