{
  "contractName": "Piper",
  "abi": [
    {
      "anonymous": false,
      "inputs": [
        {
          "indexed": false,
          "name": "owner",
          "type": "address"
        },
        {
          "components": [
            {
              "name": "updated",
              "type": "uint32"
            },
            {
              "name": "size",
              "type": "uint32"
            },
            {
              "name": "version",
              "type": "string"
            },
            {
              "name": "category",
              "type": "string"
            },
            {
              "name": "name",
              "type": "string"
            },
            {
              "name": "hash",
              "type": "string"
            },
            {
              "name": "crx",
              "type": "string"
            },
            {
              "name": "iconURL",
              "type": "string"
            },
            {
              "name": "developer",
              "type": "string"
            },
            {
              "name": "overview",
              "type": "string"
            }
          ],
          "indexed": false,
          "name": "extension",
          "type": "tuple"
        }
      ],
      "name": "Extension",
      "type": "event",
      "_alias": "Extension"
    },
    {
      "anonymous": false,
      "inputs": [
        {
          "indexed": false,
          "name": "hash",
          "type": "string"
        },
        {
          "indexed": false,
          "name": "version",
          "type": "string"
        },
        {
          "indexed": false,
          "name": "crx",
          "type": "string"
        }
      ],
      "name": "ExtensionVersion",
      "type": "event",
      "_alias": "ExtensionVersion"
    },
    {
      "anonymous": false,
      "inputs": [
        {
          "indexed": false,
          "name": "hash",
          "type": "string"
        },
        {
          "indexed": false,
          "name": "rating",
          "type": "uint32"
        },
        {
          "indexed": false,
          "name": "review",
          "type": "string"
        }
      ],
      "name": "ExtensionReview",
      "type": "event",
      "_alias": "ExtensionReview"
    },
    {
      "constant": true,
      "inputs": [
        {
          "name": "_hash",
          "type": "string"
        }
      ],
      "name": "isExtension",
      "outputs": [
        {
          "name": "",
          "type": "bool"
        }
      ],
      "payable": false,
      "stateMutability": "view",
      "type": "function"
    },
    {
      "constant": false,
      "inputs": [
        {
          "components": [
            {
              "name": "updated",
              "type": "uint32"
            },
            {
              "name": "size",
              "type": "uint32"
            },
            {
              "name": "version",
              "type": "string"
            },
            {
              "name": "category",
              "type": "string"
            },
            {
              "name": "name",
              "type": "string"
            },
            {
              "name": "hash",
              "type": "string"
            },
            {
              "name": "crx",
              "type": "string"
            },
            {
              "name": "iconURL",
              "type": "string"
            },
            {
              "name": "developer",
              "type": "string"
            },
            {
              "name": "overview",
              "type": "string"
            }
          ],
          "name": "_extension",
          "type": "tuple"
        }
      ],
      "name": "createNewExtension",
      "outputs": [],
      "payable": false,
      "stateMutability": "nonpayable",
      "type": "function"
    },
    {
      "constant": false,
      "inputs": [
        {
          "name": "_hash",
          "type": "string"
        },
        {
          "name": "_rating",
          "type": "uint32"
        },
        {
          "name": "_review",
          "type": "string"
        }
      ],
      "name": "addReview",
      "outputs": [],
      "payable": false,
      "stateMutability": "nonpayable",
      "type": "function"
    }
  ],
  "bytecode": "0x608060405234801561001057600080fd5b50610df7806100206000396000f3fe608060405234801561001057600080fd5b50600436106100415760003560e01c80639e612a7a14610046578063c829274014610062578063fa16b9b61461007e575b600080fd5b610060600480360361005b9190810190610739565b6100ae565b005b61007c600480360361007791908101906107b8565b610100565b005b610098600480360361009391908101906106f8565b6103a8565b6040516100a59190610b50565b60405180910390f35b6100b7836103a8565b6100c057600080fd5b7f95fe9a42a6c5ac2b145354e4f27fdc7bf8bbb2cf38b7362b3b515f5dc56988ed8383836040516100f393929190610b6b565b60405180910390a1505050565b61010d8160a001516103a8565b61022657806040015160008260a0015160405161012a9190610af2565b9081526020016040518091039020908051906020019061014b9291906103e4565b503360018260a001516040516101619190610af2565b908152602001604051809103902060006101000a81548173ffffffffffffffffffffffffffffffffffffffff021916908373ffffffffffffffffffffffffffffffffffffffff160217905550600160028260a001516040516101c39190610af2565b908152602001604051809103902060006101000a81548160ff0219169083151502179055507f5a97a79abc78e4c686a2b69adc296b31939a2d367f6ce9856e4760a765414a0e3382604051610219929190610b20565b60405180910390a16103a5565b60018160a0015160405161023a9190610af2565b908152602001604051809103902060009054906101000a900473ffffffffffffffffffffffffffffffffffffffff1673ffffffffffffffffffffffffffffffffffffffff163373ffffffffffffffffffffffffffffffffffffffff16146102a057600080fd5b60008160a001516040516102b49190610af2565b90815260200160405180910390206040516102cf9190610adb565b60405180910390208160400151805190602001201461036b57806040015160008260a001516040516103019190610af2565b908152602001604051809103902090805190602001906103229291906103e4565b507f5952f3a9a3c07c15bf4f9c0052799748441f9edfc328a423623cbccf9261ddbd8160a0015182604001518360c0015160405161036293929190610bb0565b60405180910390a15b7f5a97a79abc78e4c686a2b69adc296b31939a2d367f6ce9856e4760a765414a0e338260405161039c929190610b20565b60405180910390a15b50565b6000600115156002836040516103be9190610b09565b908152602001604051809103902060009054906101000a900460ff161515149050919050565b828054600181600116156101000203166002900490600052602060002090601f016020900481019282601f1061042557805160ff1916838001178555610453565b82800160010185558215610453579182015b82811115610452578251825591602001919060010190610437565b5b5090506104609190610464565b5090565b61048691905b8082111561048257600081600090555060010161046a565b5090565b90565b600082601f83011261049a57600080fd5b81356104ad6104a882610c29565b610bfc565b915080825260208301602083018583830111156104c957600080fd5b6104d4838284610d53565b50505092915050565b600082601f8301126104ee57600080fd5b81356105016104fc82610c55565b610bfc565b9150808252602083016020830185838301111561051d57600080fd5b610528838284610d53565b50505092915050565b6000610140828403121561054457600080fd5b61054f610140610bfc565b9050600061055f848285016106e3565b6000830152506020610573848285016106e3565b602083015250604082013567ffffffffffffffff81111561059357600080fd5b61059f84828501610489565b604083015250606082013567ffffffffffffffff8111156105bf57600080fd5b6105cb84828501610489565b606083015250608082013567ffffffffffffffff8111156105eb57600080fd5b6105f784828501610489565b60808301525060a082013567ffffffffffffffff81111561061757600080fd5b61062384828501610489565b60a08301525060c082013567ffffffffffffffff81111561064357600080fd5b61064f84828501610489565b60c08301525060e082013567ffffffffffffffff81111561066f57600080fd5b61067b84828501610489565b60e08301525061010082013567ffffffffffffffff81111561069c57600080fd5b6106a884828501610489565b6101008301525061012082013567ffffffffffffffff8111156106ca57600080fd5b6106d684828501610489565b6101208301525092915050565b6000813590506106f281610da6565b92915050565b60006020828403121561070a57600080fd5b600082013567ffffffffffffffff81111561072457600080fd5b610730848285016104dd565b91505092915050565b60008060006060848603121561074e57600080fd5b600084013567ffffffffffffffff81111561076857600080fd5b610774868287016104dd565b9350506020610785868287016106e3565b925050604084013567ffffffffffffffff8111156107a257600080fd5b6107ae868287016104dd565b9150509250925092565b6000602082840312156107ca57600080fd5b600082013567ffffffffffffffff8111156107e457600080fd5b6107f084828501610531565b91505092915050565b61080281610d1d565b82525050565b61081181610ce1565b82525050565b60008154600181166000811461083457600181146108595761089d565b607f60028304166108458187610ca9565b955060ff198316865280860193505061089d565b600282046108678187610ca9565b955061087285610c81565b60005b8281101561089457815481890152600182019150602081019050610875565b82880195505050505b505092915050565b60006108b082610c9e565b6108ba8185610cc5565b93506108ca818560208601610d62565b6108d381610d95565b840191505092915050565b60006108e982610c9e565b6108f38185610cd6565b9350610903818560208601610d62565b80840191505092915050565b600061091a82610c93565b6109248185610cb4565b9350610934818560208601610d62565b61093d81610d95565b840191505092915050565b600061095382610c93565b61095d8185610cc5565b935061096d818560208601610d62565b61097681610d95565b840191505092915050565b600061098c82610c93565b6109968185610cd6565b93506109a6818560208601610d62565b80840191505092915050565b6000610140830160008301516109cb6000860182610abd565b5060208301516109de6020860182610abd565b50604083015184820360408601526109f6828261090f565b91505060608301518482036060860152610a10828261090f565b91505060808301518482036080860152610a2a828261090f565b91505060a083015184820360a0860152610a44828261090f565b91505060c083015184820360c0860152610a5e828261090f565b91505060e083015184820360e0860152610a78828261090f565b915050610100830151848203610100860152610a94828261090f565b915050610120830151848203610120860152610ab0828261090f565b9150508091505092915050565b610ac681610d0d565b82525050565b610ad581610d0d565b82525050565b6000610ae78284610817565b915081905092915050565b6000610afe8284610981565b915081905092915050565b6000610b1582846108de565b915081905092915050565b6000604082019050610b3560008301856107f9565b8181036020830152610b4781846109b2565b90509392505050565b6000602082019050610b656000830184610808565b92915050565b60006060820190508181036000830152610b8581866108a5565b9050610b946020830185610acc565b8181036040830152610ba681846108a5565b9050949350505050565b60006060820190508181036000830152610bca8186610948565b90508181036020830152610bde8185610948565b90508181036040830152610bf28184610948565b9050949350505050565b6000604051905081810181811067ffffffffffffffff82111715610c1f57600080fd5b8060405250919050565b600067ffffffffffffffff821115610c4057600080fd5b601f19601f8301169050602081019050919050565b600067ffffffffffffffff821115610c6c57600080fd5b601f19601f8301169050602081019050919050565b60008160005260206000209050919050565b600081519050919050565b600081519050919050565b600081905092915050565b600082825260208201905092915050565b600082825260208201905092915050565b600081905092915050565b60008115159050919050565b600073ffffffffffffffffffffffffffffffffffffffff82169050919050565b600063ffffffff82169050919050565b6000610d2882610d2f565b9050919050565b6000610d3a82610d41565b9050919050565b6000610d4c82610ced565b9050919050565b82818337600083830152505050565b60005b83811015610d80578082015181840152602081019050610d65565b83811115610d8f576000848401525b50505050565b6000601f19601f8301169050919050565b610daf81610d0d565b8114610dba57600080fd5b5056fea265627a7a72305820abc10676ae4d3ca66c367849acd099b5c487e175cd4ab1ac546ac73a1d2d80a46c6578706572696d656e74616cf50037",
  "source": "pragma solidity >=0.5.0 <0.6.0;\npragma experimental ABIEncoderV2;\n\ncontract Piper {\n  struct Ext {\n    uint32 updated;\n    uint32 size;\n    string version;\n    string category;\n    string name;\n    string hash;\n    string crx;\n    string iconURL;\n    string developer;\n    string overview;\n  }\n\n  mapping(string => string) versions;\n  mapping(string => address) owner;\n  mapping(string => bool) hasExtension;\n\n  function isExtension(string memory _hash) public view returns(bool) {\n    return hasExtension[_hash] == true;\n  }\n\n  event Extension(address owner, Ext extension);\n  event ExtensionVersion(string hash, string version, string crx);\n  event ExtensionReview(string hash, uint32 rating, string review);\n\n  function createNewExtension(Ext memory _extension) public {\n    if (!isExtension(_extension.hash)) {\n      // Create new extension.\n      versions[_extension.hash] = _extension.version;\n      owner[_extension.hash] = msg.sender;\n      hasExtension[_extension.hash] = true;\n\n      emit Extension(msg.sender, _extension);\n    } else {\n      // Updating the extension.\n\n      // Check if extension owner is the one trying to edit it.\n      require(msg.sender == owner[_extension.hash]);\n\n      // Check whether they are updating the version.\n      if (keccak256(bytes(_extension.version)) != keccak256(bytes(versions[_extension.hash]))) {\n        versions[_extension.hash] = _extension.version;\n\n        emit ExtensionVersion(_extension.hash, _extension.version, _extension.crx);\n      }\n\n      emit Extension(msg.sender, _extension);\n    }\n  }\n\n  function addReview(string memory _hash, uint32 _rating, string memory _review) public {\n    require (isExtension(_hash));\n\n    emit ExtensionReview(_hash, _rating, _review);\n  }\n}\n",
  "sourcePath": "/home/robin/piper/contracts/Piper.sol",
  "compiler": {
    "name": "solc",
    "version": "0.5.8+commit.23d335f2.Emscripten.clang"
  },
  "schemaVersion": "3.0.11",
  "updatedAt": "2019-07-07T03:50:48.318Z",
  "devdoc": {
    "methods": {}
  },
  "userdoc": {
    "methods": {}
  }
}