{
  "contractName": "Piper",
  "abi": [
    {
      "inputs": [],
      "payable": false,
      "stateMutability": "nonpayable",
      "type": "constructor"
    },
    {
      "anonymous": false,
      "inputs": [
        {
          "components": [
            {
              "components": [
                {
                  "name": "hash",
                  "type": "string"
                },
                {
                  "name": "developer",
                  "type": "string"
                },
                {
                  "name": "developerETH",
                  "type": "string"
                },
                {
                  "name": "name",
                  "type": "string"
                },
                {
                  "name": "overview",
                  "type": "string"
                },
                {
                  "name": "category",
                  "type": "string"
                },
                {
                  "name": "version",
                  "type": "string"
                },
                {
                  "name": "size",
                  "type": "uint256"
                },
                {
                  "name": "iconURL",
                  "type": "string"
                },
                {
                  "name": "crx",
                  "type": "string"
                },
                {
                  "name": "rating",
                  "type": "uint8"
                },
                {
                  "name": "reviews",
                  "type": "uint256"
                },
                {
                  "name": "downloads",
                  "type": "uint256"
                },
                {
                  "name": "updated",
                  "type": "uint256"
                }
              ],
              "name": "extension",
              "type": "tuple"
            },
            {
              "name": "owner",
              "type": "address"
            }
          ],
          "indexed": false,
          "name": "",
          "type": "tuple"
        }
      ],
      "name": "Extension",
      "type": "event",
      "_alias": "Extension"
    },
    {
      "anonymous": false,
      "inputs": [
        {
          "indexed": false,
          "name": "hash",
          "type": "string"
        },
        {
          "indexed": false,
          "name": "version",
          "type": "string"
        },
        {
          "indexed": false,
          "name": "crx",
          "type": "string"
        }
      ],
      "name": "ExtensionVersion",
      "type": "event",
      "_alias": "ExtensionVersion"
    },
    {
      "constant": true,
      "inputs": [
        {
          "name": "_hash",
          "type": "string"
        }
      ],
      "name": "isExtension",
      "outputs": [
        {
          "name": "",
          "type": "bool"
        }
      ],
      "payable": false,
      "stateMutability": "view",
      "type": "function"
    },
    {
      "constant": false,
      "inputs": [
        {
          "name": "_hash",
          "type": "string"
        },
        {
          "components": [
            {
              "name": "hash",
              "type": "string"
            },
            {
              "name": "developer",
              "type": "string"
            },
            {
              "name": "developerETH",
              "type": "string"
            },
            {
              "name": "name",
              "type": "string"
            },
            {
              "name": "overview",
              "type": "string"
            },
            {
              "name": "category",
              "type": "string"
            },
            {
              "name": "version",
              "type": "string"
            },
            {
              "name": "size",
              "type": "uint256"
            },
            {
              "name": "iconURL",
              "type": "string"
            },
            {
              "name": "crx",
              "type": "string"
            },
            {
              "name": "rating",
              "type": "uint8"
            },
            {
              "name": "reviews",
              "type": "uint256"
            },
            {
              "name": "downloads",
              "type": "uint256"
            },
            {
              "name": "updated",
              "type": "uint256"
            }
          ],
          "name": "_extension",
          "type": "tuple"
        }
      ],
      "name": "createNewExtension",
      "outputs": [
        {
          "name": "",
          "type": "bool"
        }
      ],
      "payable": false,
      "stateMutability": "nonpayable",
      "type": "function"
    }
  ],
  "bytecode": "0x60806040523480156200001157600080fd5b50336000806101000a81548173ffffffffffffffffffffffffffffffffffffffff021916908373ffffffffffffffffffffffffffffffffffffffff1602179055506040518060400160405280600581526020017f5069706572000000000000000000000000000000000000000000000000000000815250600190805190602001906200009f929190620000a6565b5062000155565b828054600181600116156101000203166002900490600052602060002090601f016020900481019282601f10620000e957805160ff19168380011785556200011a565b828001600101855582156200011a579182015b8281111562000119578251825591602001919060010190620000fc565b5b5090506200012991906200012d565b5090565b6200015291905b808211156200014e57600081600090555060010162000134565b5090565b90565b61169c80620001656000396000f3fe608060405234801561001057600080fd5b50600436106100365760003560e01c80634dd87a201461003b578063fa16b9b61461006b575b600080fd5b61005560048036036100509190810190610f0b565b61009b565b604051610062919061137a565b60405180910390f35b61008560048036036100809190810190610eca565b610a75565b604051610092919061137a565b60405180910390f35b60006100a683610a75565b61031757816002846040516100bb9190611363565b908152602001604051809103902060000160008201518160000190805190602001906100e8929190610ab1565b506020820151816001019080519060200190610105929190610ab1565b506040820151816002019080519060200190610122929190610ab1565b50606082015181600301908051906020019061013f929190610ab1565b50608082015181600401908051906020019061015c929190610ab1565b5060a0820151816005019080519060200190610179929190610ab1565b5060c0820151816006019080519060200190610196929190610ab1565b5060e082015181600701556101008201518160080190805190602001906101be929190610ab1565b506101208201518160090190805190602001906101dc929190610ab1565b5061014082015181600a0160006101000a81548160ff021916908360ff16021790555061016082015181600b015561018082015181600c01556101a082015181600d0155905050336002846040516102349190611363565b9081526020016040518091039020600e0160006101000a81548173ffffffffffffffffffffffffffffffffffffffff021916908373ffffffffffffffffffffffffffffffffffffffff16021790555060016003846040516102959190611363565b908152602001604051809103902060006101000a81548160ff0219169083151502179055507fe1581b5451a286f0bcb9317febe7bf33eff39eb25cfba447b045461acd229f656002846040516102eb9190611363565b908152602001604051809103902060405161030691906113e1565b60405180910390a160019050610a6f565b6002836040516103279190611363565b9081526020016040518091039020600e0160009054906101000a900473ffffffffffffffffffffffffffffffffffffffff1673ffffffffffffffffffffffffffffffffffffffff163373ffffffffffffffffffffffffffffffffffffffff161461039057600080fd5b6002836040516103a09190611363565b90815260200160405180910390206000016009016040516103c1919061134c565b60405180910390208261012001518051906020012014610771576002836040516103eb9190611363565b908152602001604051809103902060000160060160405161040c919061134c565b60405180910390208260c0015180519060200120141561042b57600080fd5b81602001516002846040516104409190611363565b90815260200160405180910390206000016001019080519060200190610467929190610b31565b50816040015160028460405161047d9190611363565b908152602001604051809103902060000160020190805190602001906104a4929190610b31565b5081606001516002846040516104ba9190611363565b908152602001604051809103902060000160030190805190602001906104e1929190610b31565b5081608001516002846040516104f79190611363565b9081526020016040518091039020600001600401908051906020019061051e929190610b31565b508160a001516002846040516105349190611363565b9081526020016040518091039020600001600501908051906020019061055b929190610b31565b508160e001516002846040516105719190611363565b90815260200160405180910390206000016007018190555081610100015160028460405161059f9190611363565b908152602001604051809103902060000160080190805190602001906105c6929190610b31565b50816101a001516002846040516105dd9190611363565b9081526020016040518091039020600001600d01819055508160c0015160028460405161060a9190611363565b90815260200160405180910390206000016006019080519060200190610631929190610b31565b508161012001516002846040516106489190611363565b9081526020016040518091039020600001600901908051906020019061066f929190610b31565b50336002846040516106819190611363565b9081526020016040518091039020600e0160006101000a81548173ffffffffffffffffffffffffffffffffffffffff021916908373ffffffffffffffffffffffffffffffffffffffff1602179055507fe1581b5451a286f0bcb9317febe7bf33eff39eb25cfba447b045461acd229f656002846040516107019190611363565b908152602001604051809103902060405161071c91906113e1565b60405180910390a17f5952f3a9a3c07c15bf4f9c0052799748441f9edfc328a423623cbccf9261ddbd838360c0015184610120015160405161076093929190611395565b60405180910390a160019050610a6f565b81602001516002846040516107869190611363565b908152602001604051809103902060000160010190805190602001906107ad929190610b31565b5081604001516002846040516107c39190611363565b908152602001604051809103902060000160020190805190602001906107ea929190610b31565b5081606001516002846040516108009190611363565b90815260200160405180910390206000016003019080519060200190610827929190610b31565b50816080015160028460405161083d9190611363565b90815260200160405180910390206000016004019080519060200190610864929190610b31565b508160a0015160028460405161087a9190611363565b908152602001604051809103902060000160050190805190602001906108a1929190610b31565b508160e001516002846040516108b79190611363565b9081526020016040518091039020600001600701819055508161010001516002846040516108e59190611363565b9081526020016040518091039020600001600801908051906020019061090c929190610b31565b50816101a001516002846040516109239190611363565b9081526020016040518091039020600001600d01819055508160c001516002846040516109509190611363565b90815260200160405180910390206000016006019080519060200190610977929190610b31565b5081610120015160028460405161098e9190611363565b908152602001604051809103902060000160090190805190602001906109b5929190610b31565b50336002846040516109c79190611363565b9081526020016040518091039020600e0160006101000a81548173ffffffffffffffffffffffffffffffffffffffff021916908373ffffffffffffffffffffffffffffffffffffffff1602179055507fe1581b5451a286f0bcb9317febe7bf33eff39eb25cfba447b045461acd229f65600284604051610a479190611363565b9081526020016040518091039020604051610a6291906113e1565b60405180910390a1600190505b92915050565b600060011515600383604051610a8b9190611363565b908152602001604051809103902060009054906101000a900460ff161515149050919050565b828054600181600116156101000203166002900490600052602060002090601f016020900481019282601f10610af257805160ff1916838001178555610b20565b82800160010185558215610b20579182015b82811115610b1f578251825591602001919060010190610b04565b5b509050610b2d9190610bb1565b5090565b828054600181600116156101000203166002900490600052602060002090601f016020900481019282601f10610b7257805160ff1916838001178555610ba0565b82800160010185558215610ba0579182015b82811115610b9f578251825591602001919060010190610b84565b5b509050610bad9190610bb1565b5090565b610bd391905b80821115610bcf576000816000905550600101610bb7565b5090565b90565b600082601f830112610be757600080fd5b8135610bfa610bf582611430565b611403565b91508082526020830160208301858383011115610c1657600080fd5b610c21838284611586565b50505092915050565b600082601f830112610c3b57600080fd5b8135610c4e610c498261145c565b611403565b91508082526020830160208301858383011115610c6a57600080fd5b610c75838284611586565b50505092915050565b60006101c08284031215610c9157600080fd5b610c9c6101c0611403565b9050600082013567ffffffffffffffff811115610cb857600080fd5b610cc484828501610bd6565b600083015250602082013567ffffffffffffffff811115610ce457600080fd5b610cf084828501610bd6565b602083015250604082013567ffffffffffffffff811115610d1057600080fd5b610d1c84828501610bd6565b604083015250606082013567ffffffffffffffff811115610d3c57600080fd5b610d4884828501610bd6565b606083015250608082013567ffffffffffffffff811115610d6857600080fd5b610d7484828501610bd6565b60808301525060a082013567ffffffffffffffff811115610d9457600080fd5b610da084828501610bd6565b60a08301525060c082013567ffffffffffffffff811115610dc057600080fd5b610dcc84828501610bd6565b60c08301525060e0610de084828501610ea0565b60e08301525061010082013567ffffffffffffffff811115610e0157600080fd5b610e0d84828501610bd6565b6101008301525061012082013567ffffffffffffffff811115610e2f57600080fd5b610e3b84828501610bd6565b61012083015250610140610e5184828501610eb5565b61014083015250610160610e6784828501610ea0565b61016083015250610180610e7d84828501610ea0565b610180830152506101a0610e9384828501610ea0565b6101a08301525092915050565b600081359050610eaf81611634565b92915050565b600081359050610ec48161164b565b92915050565b600060208284031215610edc57600080fd5b600082013567ffffffffffffffff811115610ef657600080fd5b610f0284828501610c2a565b91505092915050565b60008060408385031215610f1e57600080fd5b600083013567ffffffffffffffff811115610f3857600080fd5b610f4485828601610c2a565b925050602083013567ffffffffffffffff811115610f6157600080fd5b610f6d85828601610c7e565b9150509250929050565b610f8081611531565b82525050565b610f8f81611543565b82525050565b600081546001811660008114610fb25760018114610fd75761101b565b607f6002830416610fc381876114c2565b955060ff198316865280860193505061101b565b60028204610fe581876114c2565b9550610ff085611488565b60005b8281101561101257815481890152600182019150602081019050610ff3565b82880195505050505b505092915050565b600061102e826114b7565b61103881856114de565b9350611048818560208601611595565b61105181611616565b840191505092915050565b6000611067826114b7565b61107181856114ef565b9350611081818560208601611595565b80840191505092915050565b6000611098826114ac565b6110a281856114de565b93506110b2818560208601611595565b6110bb81611616565b840191505092915050565b6000815460018116600081146110e357600181146111095761114d565b607f60028304166110f481876114cd565b955060ff19831686526020860193505061114d565b6002820461111781876114cd565b95506111228561149a565b60005b8281101561114457815481890152600182019150602081019050611125565b80880195505050505b505092915050565b60006040830160008084018583036000870152611172838261119e565b925050600e8401549050611185816115c8565b6111926020870182610f77565b50819250505092915050565b60006101c08301600080840185830360008701526111bc83826110c6565b9250506001840185830360208701526111d583826110c6565b9250506002840185830360408701526111ee83826110c6565b92505060038401858303606087015261120783826110c6565b92505060048401858303608087015261122083826110c6565b9250506005840185830360a087015261123983826110c6565b9250506006840185830360c087015261125283826110c6565b92505060078401549050611265816115e2565b61127260e087018261132e565b506008840185830361010087015261128a83826110c6565b925050600984018583036101208701526112a483826110c6565b925050600a84015490506112b7816115fc565b6112c561014087018261133d565b50600b84015490506112d6816115e2565b6112e461016087018261132e565b50600c84015490506112f5816115e2565b61130361018087018261132e565b50600d8401549050611314816115e2565b6113226101a087018261132e565b50819250505092915050565b6113378161156f565b82525050565b61134681611579565b82525050565b60006113588284610f95565b915081905092915050565b600061136f828461105c565b915081905092915050565b600060208201905061138f6000830184610f86565b92915050565b600060608201905081810360008301526113af8186611023565b905081810360208301526113c3818561108d565b905081810360408301526113d7818461108d565b9050949350505050565b600060208201905081810360008301526113fb8184611155565b905092915050565b6000604051905081810181811067ffffffffffffffff8211171561142657600080fd5b8060405250919050565b600067ffffffffffffffff82111561144757600080fd5b601f19601f8301169050602081019050919050565b600067ffffffffffffffff82111561147357600080fd5b601f19601f8301169050602081019050919050565b60008160005260206000209050919050565b60008160005260206000209050919050565b600081519050919050565b600081519050919050565b600081905092915050565b600082825260208201905092915050565b600082825260208201905092915050565b600081905092915050565b600073ffffffffffffffffffffffffffffffffffffffff82169050919050565b6000819050919050565b600060ff82169050919050565b600061153c8261154f565b9050919050565b60008115159050919050565b600073ffffffffffffffffffffffffffffffffffffffff82169050919050565b6000819050919050565b600060ff82169050919050565b82818337600083830152505050565b60005b838110156115b3578082015181840152602081019050611598565b838111156115c2576000848401525b50505050565b60006115db6115d683611627565b6114fa565b9050919050565b60006115f56115f083611627565b61151a565b9050919050565b600061160f61160a83611627565b611524565b9050919050565b6000601f19601f8301169050919050565b60008160001c9050919050565b61163d8161156f565b811461164857600080fd5b50565b61165481611579565b811461165f57600080fd5b5056fea265627a7a72305820bf71f58c5777772cf22d2202a35fb16fc9aea3bb3ce8adf7042dbe3285deea4f6c6578706572696d656e74616cf50037",
  "source": "pragma solidity >=0.5.0 <0.6.0;\npragma experimental ABIEncoderV2;\n\ncontract Piper {\n  address owner;\n  string name;\n\n  struct Extension_ {\n    string hash;\n    string developer;\n    string developerETH;\n    string name;\n    string overview;\n    string category;\n    string version;\n    uint size;\n    string iconURL;\n    string crx;\n    uint8 rating;\n    uint reviews;\n    uint downloads;\n    uint updated;\n  }\n\n  struct ExtensionWithOwner {\n    Extension_ extension;\n    address owner;\n  }\n\n  mapping(string => ExtensionWithOwner) extensions;\n  mapping(string => bool) hasExtension;\n\n  constructor() public {\n    owner = msg.sender;\n    name = \"Piper\";\n  }\n\n  function isExtension(string memory _hash) public view returns(bool) {\n    return hasExtension[_hash] == true;\n  }\n\n  event Extension(ExtensionWithOwner);\n  event ExtensionVersion(string hash, string version, string crx);\n\n  function createNewExtension(string memory _hash, Extension_ memory _extension) public returns(bool) {\n    // Creating a new extension.\n    if (!isExtension(_hash)) {\n      // Create new extension.\n      extensions[_hash].extension = _extension;\n      extensions[_hash].owner = msg.sender;\n      hasExtension[_hash] = true;\n\n      emit Extension(extensions[_hash]);\n\n      return true;\n    } else {\n      // Updating the extension.\n\n      // Check if extension owner is the one trying to edit it.\n      require(msg.sender == extensions[_hash].owner);\n\n      // Check whether they are updating the version.\n      if (keccak256(bytes(_extension.crx)) != keccak256(bytes(extensions[_hash].extension.crx))) {\n        require(keccak256(bytes(_extension.version)) != keccak256(bytes(extensions[_hash].extension.version)));\n\n        // Update the extension.\n        extensions[_hash].extension.developer = _extension.developer;\n        extensions[_hash].extension.developerETH = _extension.developerETH;\n        extensions[_hash].extension.name = _extension.name;\n        extensions[_hash].extension.overview = _extension.overview;\n        extensions[_hash].extension.category = _extension.category;\n        extensions[_hash].extension.size = _extension.size;\n        extensions[_hash].extension.iconURL = _extension.iconURL;\n        extensions[_hash].extension.updated = _extension.updated;\n        extensions[_hash].extension.version = _extension.version;\n        extensions[_hash].extension.crx = _extension.crx;\n        extensions[_hash].owner = msg.sender;\n\n        emit Extension(extensions[_hash]);\n        emit ExtensionVersion(_hash, _extension.version, _extension.crx);\n\n        return true;\n      }\n\n      // Update the extension.\n      extensions[_hash].extension.developer = _extension.developer;\n      extensions[_hash].extension.developerETH = _extension.developerETH;\n      extensions[_hash].extension.name = _extension.name;\n      extensions[_hash].extension.overview = _extension.overview;\n      extensions[_hash].extension.category = _extension.category;\n      extensions[_hash].extension.size = _extension.size;\n      extensions[_hash].extension.iconURL = _extension.iconURL;\n      extensions[_hash].extension.updated = _extension.updated;\n      extensions[_hash].extension.version = _extension.version;\n      extensions[_hash].extension.crx = _extension.crx;\n      extensions[_hash].owner = msg.sender;\n\n      emit Extension(extensions[_hash]);\n\n      return true;\n    }\n  }\n}\n",
  "sourcePath": "/home/robin/piper/contracts/Piper.sol",
  "compiler": {
    "name": "solc",
    "version": "0.5.8+commit.23d335f2.Emscripten.clang"
  },
  "schemaVersion": "3.0.11",
  "updatedAt": "2019-07-06T02:18:03.585Z",
  "devdoc": {
    "methods": {}
  },
  "userdoc": {
    "methods": {}
  }
}