{
  "contractName": "Piper",
  "abi": [
    {
      "inputs": [],
      "payable": false,
      "stateMutability": "nonpayable",
      "type": "constructor"
    },
    {
      "anonymous": false,
      "inputs": [
        {
          "components": [
            {
              "components": [
                {
                  "name": "hash",
                  "type": "string"
                },
                {
                  "name": "developer",
                  "type": "string"
                },
                {
                  "name": "developerETH",
                  "type": "string"
                },
                {
                  "name": "name",
                  "type": "string"
                },
                {
                  "name": "overview",
                  "type": "string"
                },
                {
                  "name": "category",
                  "type": "string"
                },
                {
                  "name": "version",
                  "type": "string"
                },
                {
                  "name": "size",
                  "type": "uint256"
                },
                {
                  "name": "iconURL",
                  "type": "string"
                },
                {
                  "name": "crx",
                  "type": "string"
                },
                {
                  "name": "rating",
                  "type": "uint8"
                },
                {
                  "name": "reviews",
                  "type": "uint256"
                },
                {
                  "name": "downloads",
                  "type": "uint256"
                },
                {
                  "name": "updated",
                  "type": "uint256"
                }
              ],
              "name": "extension",
              "type": "tuple"
            },
            {
              "name": "owner",
              "type": "address"
            }
          ],
          "indexed": false,
          "name": "",
          "type": "tuple"
        }
      ],
      "name": "Extension",
      "type": "event",
      "_alias": "Extension"
    },
    {
      "anonymous": false,
      "inputs": [
        {
          "indexed": false,
          "name": "hash",
          "type": "string"
        },
        {
          "indexed": false,
          "name": "version",
          "type": "string"
        },
        {
          "indexed": false,
          "name": "crx",
          "type": "string"
        }
      ],
      "name": "ExtensionVersion",
      "type": "event",
      "_alias": "ExtensionVersion"
    },
    {
      "anonymous": false,
      "inputs": [
        {
          "indexed": false,
          "name": "hash",
          "type": "string"
        },
        {
          "indexed": false,
          "name": "review",
          "type": "string"
        },
        {
          "indexed": false,
          "name": "rating",
          "type": "uint256"
        }
      ],
      "name": "ExtensionReview",
      "type": "event",
      "_alias": "ExtensionReview"
    },
    {
      "constant": true,
      "inputs": [
        {
          "name": "_hash",
          "type": "string"
        }
      ],
      "name": "isExtension",
      "outputs": [
        {
          "name": "",
          "type": "bool"
        }
      ],
      "payable": false,
      "stateMutability": "view",
      "type": "function"
    },
    {
      "constant": false,
      "inputs": [
        {
          "name": "_hash",
          "type": "string"
        },
        {
          "components": [
            {
              "name": "hash",
              "type": "string"
            },
            {
              "name": "developer",
              "type": "string"
            },
            {
              "name": "developerETH",
              "type": "string"
            },
            {
              "name": "name",
              "type": "string"
            },
            {
              "name": "overview",
              "type": "string"
            },
            {
              "name": "category",
              "type": "string"
            },
            {
              "name": "version",
              "type": "string"
            },
            {
              "name": "size",
              "type": "uint256"
            },
            {
              "name": "iconURL",
              "type": "string"
            },
            {
              "name": "crx",
              "type": "string"
            },
            {
              "name": "rating",
              "type": "uint8"
            },
            {
              "name": "reviews",
              "type": "uint256"
            },
            {
              "name": "downloads",
              "type": "uint256"
            },
            {
              "name": "updated",
              "type": "uint256"
            }
          ],
          "name": "_extension",
          "type": "tuple"
        }
      ],
      "name": "createNewExtension",
      "outputs": [
        {
          "name": "",
          "type": "bool"
        }
      ],
      "payable": false,
      "stateMutability": "nonpayable",
      "type": "function"
    },
    {
      "constant": false,
      "inputs": [
        {
          "name": "_hash",
          "type": "string"
        },
        {
          "name": "_review",
          "type": "string"
        },
        {
          "name": "_rating",
          "type": "uint256"
        }
      ],
      "name": "addReview",
      "outputs": [
        {
          "name": "",
          "type": "bool"
        }
      ],
      "payable": false,
      "stateMutability": "nonpayable",
      "type": "function"
    }
  ],
  "bytecode": "0x60806040523480156200001157600080fd5b50336000806101000a81548173ffffffffffffffffffffffffffffffffffffffff021916908373ffffffffffffffffffffffffffffffffffffffff1602179055506040518060400160405280600581526020017f5069706572000000000000000000000000000000000000000000000000000000815250600190805190602001906200009f929190620000a6565b5062000155565b828054600181600116156101000203166002900490600052602060002090601f016020900481019282601f10620000e957805160ff19168380011785556200011a565b828001600101855582156200011a579182015b8281111562000119578251825591602001919060010190620000fc565b5b5090506200012991906200012d565b5090565b6200015291905b808211156200014e57600081600090555060010162000134565b5090565b90565b61180480620001656000396000f3fe608060405234801561001057600080fd5b50600436106100415760003560e01c80634dd87a2014610046578063eb152d6a14610076578063fa16b9b6146100a6575b600080fd5b610060600480360361005b919081019061101f565b6100d6565b60405161006d919061149d565b60405180910390f35b610090600480360361008b9190810190610fa0565b610ab0565b60405161009d919061149d565b60405180910390f35b6100c060048036036100bb9190810190610f5f565b610b0a565b6040516100cd919061149d565b60405180910390f35b60006100e183610b0a565b61035257816002846040516100f69190611486565b90815260200160405180910390206000016000820151816000019080519060200190610123929190610b46565b506020820151816001019080519060200190610140929190610b46565b50604082015181600201908051906020019061015d929190610b46565b50606082015181600301908051906020019061017a929190610b46565b506080820151816004019080519060200190610197929190610b46565b5060a08201518160050190805190602001906101b4929190610b46565b5060c08201518160060190805190602001906101d1929190610b46565b5060e082015181600701556101008201518160080190805190602001906101f9929190610b46565b50610120820151816009019080519060200190610217929190610b46565b5061014082015181600a0160006101000a81548160ff021916908360ff16021790555061016082015181600b015561018082015181600c01556101a082015181600d01559050503360028460405161026f9190611486565b9081526020016040518091039020600e0160006101000a81548173ffffffffffffffffffffffffffffffffffffffff021916908373ffffffffffffffffffffffffffffffffffffffff16021790555060016003846040516102d09190611486565b908152602001604051809103902060006101000a81548160ff0219169083151502179055507fe1581b5451a286f0bcb9317febe7bf33eff39eb25cfba447b045461acd229f656002846040516103269190611486565b90815260200160405180910390206040516103419190611549565b60405180910390a160019050610aaa565b6002836040516103629190611486565b9081526020016040518091039020600e0160009054906101000a900473ffffffffffffffffffffffffffffffffffffffff1673ffffffffffffffffffffffffffffffffffffffff163373ffffffffffffffffffffffffffffffffffffffff16146103cb57600080fd5b6002836040516103db9190611486565b90815260200160405180910390206000016009016040516103fc919061146f565b604051809103902082610120015180519060200120146107ac576002836040516104269190611486565b9081526020016040518091039020600001600601604051610447919061146f565b60405180910390208260c0015180519060200120141561046657600080fd5b816020015160028460405161047b9190611486565b908152602001604051809103902060000160010190805190602001906104a2929190610bc6565b5081604001516002846040516104b89190611486565b908152602001604051809103902060000160020190805190602001906104df929190610bc6565b5081606001516002846040516104f59190611486565b9081526020016040518091039020600001600301908051906020019061051c929190610bc6565b5081608001516002846040516105329190611486565b90815260200160405180910390206000016004019080519060200190610559929190610bc6565b508160a0015160028460405161056f9190611486565b90815260200160405180910390206000016005019080519060200190610596929190610bc6565b508160e001516002846040516105ac9190611486565b9081526020016040518091039020600001600701819055508161010001516002846040516105da9190611486565b90815260200160405180910390206000016008019080519060200190610601929190610bc6565b50816101a001516002846040516106189190611486565b9081526020016040518091039020600001600d01819055508160c001516002846040516106459190611486565b9081526020016040518091039020600001600601908051906020019061066c929190610bc6565b508161012001516002846040516106839190611486565b908152602001604051809103902060000160090190805190602001906106aa929190610bc6565b50336002846040516106bc9190611486565b9081526020016040518091039020600e0160006101000a81548173ffffffffffffffffffffffffffffffffffffffff021916908373ffffffffffffffffffffffffffffffffffffffff1602179055507fe1581b5451a286f0bcb9317febe7bf33eff39eb25cfba447b045461acd229f6560028460405161073c9190611486565b90815260200160405180910390206040516107579190611549565b60405180910390a17f5952f3a9a3c07c15bf4f9c0052799748441f9edfc328a423623cbccf9261ddbd838360c0015184610120015160405161079b939291906114fd565b60405180910390a160019050610aaa565b81602001516002846040516107c19190611486565b908152602001604051809103902060000160010190805190602001906107e8929190610bc6565b5081604001516002846040516107fe9190611486565b90815260200160405180910390206000016002019080519060200190610825929190610bc6565b50816060015160028460405161083b9190611486565b90815260200160405180910390206000016003019080519060200190610862929190610bc6565b5081608001516002846040516108789190611486565b9081526020016040518091039020600001600401908051906020019061089f929190610bc6565b508160a001516002846040516108b59190611486565b908152602001604051809103902060000160050190805190602001906108dc929190610bc6565b508160e001516002846040516108f29190611486565b9081526020016040518091039020600001600701819055508161010001516002846040516109209190611486565b90815260200160405180910390206000016008019080519060200190610947929190610bc6565b50816101a0015160028460405161095e9190611486565b9081526020016040518091039020600001600d01819055508160c0015160028460405161098b9190611486565b908152602001604051809103902060000160060190805190602001906109b2929190610bc6565b508161012001516002846040516109c99190611486565b908152602001604051809103902060000160090190805190602001906109f0929190610bc6565b5033600284604051610a029190611486565b9081526020016040518091039020600e0160006101000a81548173ffffffffffffffffffffffffffffffffffffffff021916908373ffffffffffffffffffffffffffffffffffffffff1602179055507fe1581b5451a286f0bcb9317febe7bf33eff39eb25cfba447b045461acd229f65600284604051610a829190611486565b9081526020016040518091039020604051610a9d9190611549565b60405180910390a1600190505b92915050565b6000610abb84610b0a565b610ac457600080fd5b7fb5cd0e251902cfc50ff7ca49e20bd15c969cafadd7f38512c0247e746db3da00848484604051610af7939291906114b8565b60405180910390a1600190509392505050565b600060011515600383604051610b209190611486565b908152602001604051809103902060009054906101000a900460ff161515149050919050565b828054600181600116156101000203166002900490600052602060002090601f016020900481019282601f10610b8757805160ff1916838001178555610bb5565b82800160010185558215610bb5579182015b82811115610bb4578251825591602001919060010190610b99565b5b509050610bc29190610c46565b5090565b828054600181600116156101000203166002900490600052602060002090601f016020900481019282601f10610c0757805160ff1916838001178555610c35565b82800160010185558215610c35579182015b82811115610c34578251825591602001919060010190610c19565b5b509050610c429190610c46565b5090565b610c6891905b80821115610c64576000816000905550600101610c4c565b5090565b90565b600082601f830112610c7c57600080fd5b8135610c8f610c8a82611598565b61156b565b91508082526020830160208301858383011115610cab57600080fd5b610cb68382846116ee565b50505092915050565b600082601f830112610cd057600080fd5b8135610ce3610cde826115c4565b61156b565b91508082526020830160208301858383011115610cff57600080fd5b610d0a8382846116ee565b50505092915050565b60006101c08284031215610d2657600080fd5b610d316101c061156b565b9050600082013567ffffffffffffffff811115610d4d57600080fd5b610d5984828501610c6b565b600083015250602082013567ffffffffffffffff811115610d7957600080fd5b610d8584828501610c6b565b602083015250604082013567ffffffffffffffff811115610da557600080fd5b610db184828501610c6b565b604083015250606082013567ffffffffffffffff811115610dd157600080fd5b610ddd84828501610c6b565b606083015250608082013567ffffffffffffffff811115610dfd57600080fd5b610e0984828501610c6b565b60808301525060a082013567ffffffffffffffff811115610e2957600080fd5b610e3584828501610c6b565b60a08301525060c082013567ffffffffffffffff811115610e5557600080fd5b610e6184828501610c6b565b60c08301525060e0610e7584828501610f35565b60e08301525061010082013567ffffffffffffffff811115610e9657600080fd5b610ea284828501610c6b565b6101008301525061012082013567ffffffffffffffff811115610ec457600080fd5b610ed084828501610c6b565b61012083015250610140610ee684828501610f4a565b61014083015250610160610efc84828501610f35565b61016083015250610180610f1284828501610f35565b610180830152506101a0610f2884828501610f35565b6101a08301525092915050565b600081359050610f448161179c565b92915050565b600081359050610f59816117b3565b92915050565b600060208284031215610f7157600080fd5b600082013567ffffffffffffffff811115610f8b57600080fd5b610f9784828501610cbf565b91505092915050565b600080600060608486031215610fb557600080fd5b600084013567ffffffffffffffff811115610fcf57600080fd5b610fdb86828701610cbf565b935050602084013567ffffffffffffffff811115610ff857600080fd5b61100486828701610cbf565b925050604061101586828701610f35565b9150509250925092565b6000806040838503121561103257600080fd5b600083013567ffffffffffffffff81111561104c57600080fd5b61105885828601610cbf565b925050602083013567ffffffffffffffff81111561107557600080fd5b61108185828601610d13565b9150509250929050565b61109481611699565b82525050565b6110a3816116ab565b82525050565b6000815460018116600081146110c657600181146110eb5761112f565b607f60028304166110d7818761162a565b955060ff198316865280860193505061112f565b600282046110f9818761162a565b9550611104856115f0565b60005b8281101561112657815481890152600182019150602081019050611107565b82880195505050505b505092915050565b60006111428261161f565b61114c8185611646565b935061115c8185602086016116fd565b6111658161177e565b840191505092915050565b600061117b8261161f565b6111858185611657565b93506111958185602086016116fd565b80840191505092915050565b60006111ac82611614565b6111b68185611646565b93506111c68185602086016116fd565b6111cf8161177e565b840191505092915050565b6000815460018116600081146111f7576001811461121d57611261565b607f60028304166112088187611635565b955060ff198316865260208601935050611261565b6002820461122b8187611635565b955061123685611602565b60005b8281101561125857815481890152600182019150602081019050611239565b80880195505050505b505092915050565b6000604083016000808401858303600087015261128683826112b2565b925050600e840154905061129981611730565b6112a6602087018261108b565b50819250505092915050565b60006101c08301600080840185830360008701526112d083826111da565b9250506001840185830360208701526112e983826111da565b92505060028401858303604087015261130283826111da565b92505060038401858303606087015261131b83826111da565b92505060048401858303608087015261133483826111da565b9250506005840185830360a087015261134d83826111da565b9250506006840185830360c087015261136683826111da565b925050600784015490506113798161174a565b61138660e0870182611442565b506008840185830361010087015261139e83826111da565b925050600984018583036101208701526113b883826111da565b925050600a84015490506113cb81611764565b6113d9610140870182611460565b50600b84015490506113ea8161174a565b6113f8610160870182611442565b50600c84015490506114098161174a565b611417610180870182611442565b50600d84015490506114288161174a565b6114366101a0870182611442565b50819250505092915050565b61144b816116d7565b82525050565b61145a816116d7565b82525050565b611469816116e1565b82525050565b600061147b82846110a9565b915081905092915050565b60006114928284611170565b915081905092915050565b60006020820190506114b2600083018461109a565b92915050565b600060608201905081810360008301526114d28186611137565b905081810360208301526114e68185611137565b90506114f56040830184611451565b949350505050565b600060608201905081810360008301526115178186611137565b9050818103602083015261152b81856111a1565b9050818103604083015261153f81846111a1565b9050949350505050565b600060208201905081810360008301526115638184611269565b905092915050565b6000604051905081810181811067ffffffffffffffff8211171561158e57600080fd5b8060405250919050565b600067ffffffffffffffff8211156115af57600080fd5b601f19601f8301169050602081019050919050565b600067ffffffffffffffff8211156115db57600080fd5b601f19601f8301169050602081019050919050565b60008160005260206000209050919050565b60008160005260206000209050919050565b600081519050919050565b600081519050919050565b600081905092915050565b600082825260208201905092915050565b600082825260208201905092915050565b600081905092915050565b600073ffffffffffffffffffffffffffffffffffffffff82169050919050565b6000819050919050565b600060ff82169050919050565b60006116a4826116b7565b9050919050565b60008115159050919050565b600073ffffffffffffffffffffffffffffffffffffffff82169050919050565b6000819050919050565b600060ff82169050919050565b82818337600083830152505050565b60005b8381101561171b578082015181840152602081019050611700565b8381111561172a576000848401525b50505050565b600061174361173e8361178f565b611662565b9050919050565b600061175d6117588361178f565b611682565b9050919050565b60006117776117728361178f565b61168c565b9050919050565b6000601f19601f8301169050919050565b60008160001c9050919050565b6117a5816116d7565b81146117b057600080fd5b50565b6117bc816116e1565b81146117c757600080fd5b5056fea265627a7a7230582024d3f7cc0fbd037f33a5796dfa6b11ce60f11016005b41533972fbd758b64ae56c6578706572696d656e74616cf50037",
  "source": "pragma solidity >=0.5.0 <0.6.0;\npragma experimental ABIEncoderV2;\n\ncontract Piper {\n  address owner;\n  string name;\n\n  struct Extension_ {\n    string hash;\n    string developer;\n    string developerETH;\n    string name;\n    string overview;\n    string category;\n    string version;\n    uint size;\n    string iconURL;\n    string crx;\n    uint8 rating;\n    uint reviews;\n    uint downloads;\n    uint updated;\n  }\n\n  struct ExtensionWithOwner {\n    Extension_ extension;\n    address owner;\n  }\n\n  mapping(string => ExtensionWithOwner) extensions;\n  mapping(string => bool) hasExtension;\n\n  constructor() public {\n    owner = msg.sender;\n    name = \"Piper\";\n  }\n\n  function isExtension(string memory _hash) public view returns(bool) {\n    return hasExtension[_hash] == true;\n  }\n\n  event Extension(ExtensionWithOwner);\n  event ExtensionVersion(string hash, string version, string crx);\n  event ExtensionReview(string hash, string review, uint rating);\n\n  function createNewExtension(string memory _hash, Extension_ memory _extension) public returns(bool) {\n    // Creating a new extension.\n    if (!isExtension(_hash)) {\n      // Create new extension.\n      extensions[_hash].extension = _extension;\n      extensions[_hash].owner = msg.sender;\n      hasExtension[_hash] = true;\n\n      emit Extension(extensions[_hash]);\n\n      return true;\n    } else {\n      // Updating the extension.\n\n      // Check if extension owner is the one trying to edit it.\n      require(msg.sender == extensions[_hash].owner);\n\n      // Check whether they are updating the version.\n      if (keccak256(bytes(_extension.crx)) != keccak256(bytes(extensions[_hash].extension.crx))) {\n        require(keccak256(bytes(_extension.version)) != keccak256(bytes(extensions[_hash].extension.version)));\n\n        // Update the extension.\n        extensions[_hash].extension.developer = _extension.developer;\n        extensions[_hash].extension.developerETH = _extension.developerETH;\n        extensions[_hash].extension.name = _extension.name;\n        extensions[_hash].extension.overview = _extension.overview;\n        extensions[_hash].extension.category = _extension.category;\n        extensions[_hash].extension.size = _extension.size;\n        extensions[_hash].extension.iconURL = _extension.iconURL;\n        extensions[_hash].extension.updated = _extension.updated;\n        extensions[_hash].extension.version = _extension.version;\n        extensions[_hash].extension.crx = _extension.crx;\n        extensions[_hash].owner = msg.sender;\n\n        emit Extension(extensions[_hash]);\n        emit ExtensionVersion(_hash, _extension.version, _extension.crx);\n\n        return true;\n      }\n\n      // Update the extension.\n      extensions[_hash].extension.developer = _extension.developer;\n      extensions[_hash].extension.developerETH = _extension.developerETH;\n      extensions[_hash].extension.name = _extension.name;\n      extensions[_hash].extension.overview = _extension.overview;\n      extensions[_hash].extension.category = _extension.category;\n      extensions[_hash].extension.size = _extension.size;\n      extensions[_hash].extension.iconURL = _extension.iconURL;\n      extensions[_hash].extension.updated = _extension.updated;\n      extensions[_hash].extension.version = _extension.version;\n      extensions[_hash].extension.crx = _extension.crx;\n      extensions[_hash].owner = msg.sender;\n\n      emit Extension(extensions[_hash]);\n\n      return true;\n    }\n  }\n\n  function addReview(string memory _hash, string memory _review, uint _rating) public returns(bool) {\n    require (isExtension(_hash));\n\n    emit ExtensionReview(_hash, _review, _rating);\n\n    return true;\n  }\n}\n",
  "sourcePath": "/home/robin/piper/contracts/Piper.sol",
  "compiler": {
    "name": "solc",
    "version": "0.5.8+commit.23d335f2.Emscripten.clang"
  },
  "schemaVersion": "3.0.11",
  "updatedAt": "2019-07-06T05:47:07.812Z",
  "devdoc": {
    "methods": {}
  },
  "userdoc": {
    "methods": {}
  }
}