{
  "contractName": "Piper",
  "abi": [
    {
      "anonymous": false,
      "inputs": [
        {
          "indexed": false,
          "name": "owner",
          "type": "address"
        },
        {
          "components": [
            {
              "name": "updated",
              "type": "uint32"
            },
            {
              "name": "size",
              "type": "uint32"
            },
            {
              "name": "version",
              "type": "string"
            },
            {
              "name": "category",
              "type": "string"
            },
            {
              "name": "name",
              "type": "string"
            },
            {
              "name": "hash",
              "type": "string"
            },
            {
              "name": "crx",
              "type": "string"
            },
            {
              "name": "iconURL",
              "type": "string"
            },
            {
              "name": "developer",
              "type": "string"
            },
            {
              "name": "overview",
              "type": "string"
            }
          ],
          "indexed": false,
          "name": "extension",
          "type": "tuple"
        }
      ],
      "name": "Extension",
      "type": "event",
      "_alias": "Extension"
    },
    {
      "anonymous": false,
      "inputs": [
        {
          "indexed": false,
          "name": "hash",
          "type": "string"
        },
        {
          "indexed": false,
          "name": "version",
          "type": "string"
        },
        {
          "indexed": false,
          "name": "crx",
          "type": "string"
        },
        {
          "indexed": false,
          "name": "size",
          "type": "uint32"
        },
        {
          "indexed": false,
          "name": "updated",
          "type": "uint32"
        }
      ],
      "name": "ExtensionVersion",
      "type": "event",
      "_alias": "ExtensionVersion"
    },
    {
      "anonymous": false,
      "inputs": [
        {
          "indexed": false,
          "name": "hash",
          "type": "string"
        },
        {
          "indexed": false,
          "name": "rating",
          "type": "uint32"
        },
        {
          "indexed": false,
          "name": "review",
          "type": "string"
        },
        {
          "indexed": false,
          "name": "updated",
          "type": "uint32"
        }
      ],
      "name": "ExtensionReview",
      "type": "event",
      "_alias": "ExtensionReview"
    },
    {
      "constant": true,
      "inputs": [
        {
          "name": "_hash",
          "type": "string"
        }
      ],
      "name": "isExtension",
      "outputs": [
        {
          "name": "",
          "type": "bool"
        }
      ],
      "payable": false,
      "stateMutability": "view",
      "type": "function"
    },
    {
      "constant": false,
      "inputs": [
        {
          "components": [
            {
              "name": "updated",
              "type": "uint32"
            },
            {
              "name": "size",
              "type": "uint32"
            },
            {
              "name": "version",
              "type": "string"
            },
            {
              "name": "category",
              "type": "string"
            },
            {
              "name": "name",
              "type": "string"
            },
            {
              "name": "hash",
              "type": "string"
            },
            {
              "name": "crx",
              "type": "string"
            },
            {
              "name": "iconURL",
              "type": "string"
            },
            {
              "name": "developer",
              "type": "string"
            },
            {
              "name": "overview",
              "type": "string"
            }
          ],
          "name": "_extension",
          "type": "tuple"
        }
      ],
      "name": "createNewExtension",
      "outputs": [],
      "payable": false,
      "stateMutability": "nonpayable",
      "type": "function"
    },
    {
      "constant": false,
      "inputs": [
        {
          "name": "_hash",
          "type": "string"
        },
        {
          "name": "_rating",
          "type": "uint32"
        },
        {
          "name": "_review",
          "type": "string"
        },
        {
          "name": "_updated",
          "type": "uint32"
        }
      ],
      "name": "addReview",
      "outputs": [],
      "payable": false,
      "stateMutability": "nonpayable",
      "type": "function"
    }
  ],
  "bytecode": "0x608060405234801561001057600080fd5b50610e97806100206000396000f3fe608060405234801561001057600080fd5b50600436106100415760003560e01c806386ddf9e314610046578063c829274014610062578063fa16b9b61461007e575b600080fd5b610060600480360361005b919081019061079b565b6100ae565b005b61007c6004803603610077919081019061082e565b610103565b005b6100986004803603610093919081019061075a565b61040a565b6040516100a59190610bc6565b60405180910390f35b6100b78461040a565b6100c057600080fd5b7f23b9c0d2a58e2ae888e268dc1a6c5506b268c373084e2aa5d9c1358d3d29089e848484846040516100f59493929190610be1565b60405180910390a150505050565b6101108160a0015161040a565b61027c57806040015160008260a0015160405161012d9190610b68565b9081526020016040518091039020908051906020019061014e929190610446565b503360018260a001516040516101649190610b68565b908152602001604051809103902060006101000a81548173ffffffffffffffffffffffffffffffffffffffff021916908373ffffffffffffffffffffffffffffffffffffffff160217905550600160028260a001516040516101c69190610b68565b908152602001604051809103902060006101000a81548160ff0219169083151502179055507f5a97a79abc78e4c686a2b69adc296b31939a2d367f6ce9856e4760a765414a0e338260405161021c929190610b96565b60405180910390a17f503aa45a3aeccf5c0708843cbf32d3315ad9a5790e5cd536f04edb733a349f998160a0015182604001518360c001518460200151856000015160405161026f959493929190610c34565b60405180910390a1610407565b60018160a001516040516102909190610b68565b908152602001604051809103902060009054906101000a900473ffffffffffffffffffffffffffffffffffffffff1673ffffffffffffffffffffffffffffffffffffffff163373ffffffffffffffffffffffffffffffffffffffff16146102f657600080fd5b60008160a0015160405161030a9190610b68565b90815260200160405180910390206040516103259190610b51565b6040518091039020816040015180519060200120146103cd57806040015160008260a001516040516103579190610b68565b90815260200160405180910390209080519060200190610378929190610446565b507f503aa45a3aeccf5c0708843cbf32d3315ad9a5790e5cd536f04edb733a349f998160a0015182604001518360c00151846020015185600001516040516103c4959493929190610c34565b60405180910390a15b7f5a97a79abc78e4c686a2b69adc296b31939a2d367f6ce9856e4760a765414a0e33826040516103fe929190610b96565b60405180910390a15b50565b6000600115156002836040516104209190610b7f565b908152602001604051809103902060009054906101000a900460ff161515149050919050565b828054600181600116156101000203166002900490600052602060002090601f016020900481019282601f1061048757805160ff19168380011785556104b5565b828001600101855582156104b5579182015b828111156104b4578251825591602001919060010190610499565b5b5090506104c291906104c6565b5090565b6104e891905b808211156104e45760008160009055506001016104cc565b5090565b90565b600082601f8301126104fc57600080fd5b813561050f61050a82610cc9565b610c9c565b9150808252602083016020830185838301111561052b57600080fd5b610536838284610df3565b50505092915050565b600082601f83011261055057600080fd5b813561056361055e82610cf5565b610c9c565b9150808252602083016020830185838301111561057f57600080fd5b61058a838284610df3565b50505092915050565b600061014082840312156105a657600080fd5b6105b1610140610c9c565b905060006105c184828501610745565b60008301525060206105d584828501610745565b602083015250604082013567ffffffffffffffff8111156105f557600080fd5b610601848285016104eb565b604083015250606082013567ffffffffffffffff81111561062157600080fd5b61062d848285016104eb565b606083015250608082013567ffffffffffffffff81111561064d57600080fd5b610659848285016104eb565b60808301525060a082013567ffffffffffffffff81111561067957600080fd5b610685848285016104eb565b60a08301525060c082013567ffffffffffffffff8111156106a557600080fd5b6106b1848285016104eb565b60c08301525060e082013567ffffffffffffffff8111156106d157600080fd5b6106dd848285016104eb565b60e08301525061010082013567ffffffffffffffff8111156106fe57600080fd5b61070a848285016104eb565b6101008301525061012082013567ffffffffffffffff81111561072c57600080fd5b610738848285016104eb565b6101208301525092915050565b60008135905061075481610e46565b92915050565b60006020828403121561076c57600080fd5b600082013567ffffffffffffffff81111561078657600080fd5b6107928482850161053f565b91505092915050565b600080600080608085870312156107b157600080fd5b600085013567ffffffffffffffff8111156107cb57600080fd5b6107d78782880161053f565b94505060206107e887828801610745565b935050604085013567ffffffffffffffff81111561080557600080fd5b6108118782880161053f565b925050606061082287828801610745565b91505092959194509250565b60006020828403121561084057600080fd5b600082013567ffffffffffffffff81111561085a57600080fd5b61086684828501610593565b91505092915050565b61087881610dbd565b82525050565b61088781610d81565b82525050565b6000815460018116600081146108aa57600181146108cf57610913565b607f60028304166108bb8187610d49565b955060ff1983168652808601935050610913565b600282046108dd8187610d49565b95506108e885610d21565b60005b8281101561090a578154818901526001820191506020810190506108eb565b82880195505050505b505092915050565b600061092682610d3e565b6109308185610d65565b9350610940818560208601610e02565b61094981610e35565b840191505092915050565b600061095f82610d3e565b6109698185610d76565b9350610979818560208601610e02565b80840191505092915050565b600061099082610d33565b61099a8185610d54565b93506109aa818560208601610e02565b6109b381610e35565b840191505092915050565b60006109c982610d33565b6109d38185610d65565b93506109e3818560208601610e02565b6109ec81610e35565b840191505092915050565b6000610a0282610d33565b610a0c8185610d76565b9350610a1c818560208601610e02565b80840191505092915050565b600061014083016000830151610a416000860182610b33565b506020830151610a546020860182610b33565b5060408301518482036040860152610a6c8282610985565b91505060608301518482036060860152610a868282610985565b91505060808301518482036080860152610aa08282610985565b91505060a083015184820360a0860152610aba8282610985565b91505060c083015184820360c0860152610ad48282610985565b91505060e083015184820360e0860152610aee8282610985565b915050610100830151848203610100860152610b0a8282610985565b915050610120830151848203610120860152610b268282610985565b9150508091505092915050565b610b3c81610dad565b82525050565b610b4b81610dad565b82525050565b6000610b5d828461088d565b915081905092915050565b6000610b7482846109f7565b915081905092915050565b6000610b8b8284610954565b915081905092915050565b6000604082019050610bab600083018561086f565b8181036020830152610bbd8184610a28565b90509392505050565b6000602082019050610bdb600083018461087e565b92915050565b60006080820190508181036000830152610bfb818761091b565b9050610c0a6020830186610b42565b8181036040830152610c1c818561091b565b9050610c2b6060830184610b42565b95945050505050565b600060a0820190508181036000830152610c4e81886109be565b90508181036020830152610c6281876109be565b90508181036040830152610c7681866109be565b9050610c856060830185610b42565b610c926080830184610b42565b9695505050505050565b6000604051905081810181811067ffffffffffffffff82111715610cbf57600080fd5b8060405250919050565b600067ffffffffffffffff821115610ce057600080fd5b601f19601f8301169050602081019050919050565b600067ffffffffffffffff821115610d0c57600080fd5b601f19601f8301169050602081019050919050565b60008160005260206000209050919050565b600081519050919050565b600081519050919050565b600081905092915050565b600082825260208201905092915050565b600082825260208201905092915050565b600081905092915050565b60008115159050919050565b600073ffffffffffffffffffffffffffffffffffffffff82169050919050565b600063ffffffff82169050919050565b6000610dc882610dcf565b9050919050565b6000610dda82610de1565b9050919050565b6000610dec82610d8d565b9050919050565b82818337600083830152505050565b60005b83811015610e20578082015181840152602081019050610e05565b83811115610e2f576000848401525b50505050565b6000601f19601f8301169050919050565b610e4f81610dad565b8114610e5a57600080fd5b5056fea265627a7a72305820d632a24fe47dd6e52f907da69d22f9e9392055d56081c82382333f36c9553eaf6c6578706572696d656e74616cf50037",
  "source": "pragma solidity >=0.5.0 <0.6.0;\npragma experimental ABIEncoderV2;\n\ncontract Piper {\n  struct Ext {\n    uint32 updated;\n    uint32 size;\n    string version;\n    string category;\n    string name;\n    string hash;\n    string crx;\n    string iconURL;\n    string developer;\n    string overview;\n  }\n\n  mapping(string => string) versions;\n  mapping(string => address) owner;\n  mapping(string => bool) hasExtension;\n\n  function isExtension(string memory _hash) public view returns(bool) {\n    return hasExtension[_hash] == true;\n  }\n\n  event Extension(address owner, Ext extension);\n  event ExtensionVersion(string hash, string version, string crx, uint32 size, uint32 updated);\n  event ExtensionReview(string hash, uint32 rating, string review, uint32 updated);\n\n  function createNewExtension(Ext memory _extension) public {\n    if (!isExtension(_extension.hash)) {\n      // Create new extension.\n      versions[_extension.hash] = _extension.version;\n      owner[_extension.hash] = msg.sender;\n      hasExtension[_extension.hash] = true;\n\n      emit Extension(msg.sender, _extension);\n      emit ExtensionVersion(_extension.hash, _extension.version, _extension.crx, _extension.size, _extension.updated);\n    } else {\n      // Updating the extension.\n\n      // Check if extension owner is the one trying to edit it.\n      require(msg.sender == owner[_extension.hash]);\n\n      // Check whether they are updating the version.\n      if (keccak256(bytes(_extension.version)) != keccak256(bytes(versions[_extension.hash]))) {\n        versions[_extension.hash] = _extension.version;\n\n        emit ExtensionVersion(_extension.hash, _extension.version, _extension.crx, _extension.size, _extension.updated);\n      }\n\n      emit Extension(msg.sender, _extension);\n    }\n  }\n\n  function addReview(string memory _hash, uint32 _rating, string memory _review, uint32 _updated) public {\n    require (isExtension(_hash));\n\n    emit ExtensionReview(_hash, _rating, _review, _updated);\n  }\n}\n",
  "sourcePath": "/home/robin/piper/contracts/Piper.sol",
  "compiler": {
    "name": "solc",
    "version": "0.5.8+commit.23d335f2.Emscripten.clang"
  },
  "schemaVersion": "3.0.11",
  "updatedAt": "2019-07-09T00:52:53.778Z",
  "devdoc": {
    "methods": {}
  },
  "userdoc": {
    "methods": {}
  }
}