{
  "contractName": "Piper",
  "abi": [
    {
      "inputs": [],
      "payable": false,
      "stateMutability": "nonpayable",
      "type": "constructor"
    },
    {
      "anonymous": false,
      "inputs": [
        {
          "indexed": false,
          "name": "",
          "type": "address"
        },
        {
          "components": [
            {
              "name": "rating",
              "type": "uint8"
            },
            {
              "name": "reviews",
              "type": "uint256"
            },
            {
              "name": "downloads",
              "type": "uint256"
            },
            {
              "name": "updated",
              "type": "uint256"
            },
            {
              "name": "size",
              "type": "uint256"
            },
            {
              "name": "hash",
              "type": "string"
            },
            {
              "name": "developer",
              "type": "string"
            },
            {
              "name": "developerETH",
              "type": "string"
            },
            {
              "name": "name",
              "type": "string"
            },
            {
              "name": "overview",
              "type": "string"
            },
            {
              "name": "category",
              "type": "string"
            },
            {
              "name": "version",
              "type": "string"
            },
            {
              "name": "iconURL",
              "type": "string"
            },
            {
              "name": "crx",
              "type": "string"
            }
          ],
          "indexed": false,
          "name": "",
          "type": "tuple"
        }
      ],
      "name": "Extension",
      "type": "event",
      "_alias": "Extension"
    },
    {
      "anonymous": false,
      "inputs": [
        {
          "indexed": false,
          "name": "hash",
          "type": "string"
        },
        {
          "indexed": false,
          "name": "version",
          "type": "string"
        },
        {
          "indexed": false,
          "name": "crx",
          "type": "string"
        }
      ],
      "name": "ExtensionVersion",
      "type": "event",
      "_alias": "ExtensionVersion"
    },
    {
      "anonymous": false,
      "inputs": [
        {
          "indexed": false,
          "name": "rating",
          "type": "uint256"
        },
        {
          "indexed": false,
          "name": "hash",
          "type": "string"
        },
        {
          "indexed": false,
          "name": "review",
          "type": "string"
        }
      ],
      "name": "ExtensionReview",
      "type": "event",
      "_alias": "ExtensionReview"
    },
    {
      "constant": true,
      "inputs": [
        {
          "name": "_hash",
          "type": "string"
        }
      ],
      "name": "isExtension",
      "outputs": [
        {
          "name": "",
          "type": "bool"
        }
      ],
      "payable": false,
      "stateMutability": "view",
      "type": "function"
    },
    {
      "constant": false,
      "inputs": [
        {
          "name": "_hash",
          "type": "string"
        },
        {
          "components": [
            {
              "name": "rating",
              "type": "uint8"
            },
            {
              "name": "reviews",
              "type": "uint256"
            },
            {
              "name": "downloads",
              "type": "uint256"
            },
            {
              "name": "updated",
              "type": "uint256"
            },
            {
              "name": "size",
              "type": "uint256"
            },
            {
              "name": "hash",
              "type": "string"
            },
            {
              "name": "developer",
              "type": "string"
            },
            {
              "name": "developerETH",
              "type": "string"
            },
            {
              "name": "name",
              "type": "string"
            },
            {
              "name": "overview",
              "type": "string"
            },
            {
              "name": "category",
              "type": "string"
            },
            {
              "name": "version",
              "type": "string"
            },
            {
              "name": "iconURL",
              "type": "string"
            },
            {
              "name": "crx",
              "type": "string"
            }
          ],
          "name": "_extension",
          "type": "tuple"
        }
      ],
      "name": "createNewExtension",
      "outputs": [
        {
          "name": "",
          "type": "bool"
        }
      ],
      "payable": false,
      "stateMutability": "nonpayable",
      "type": "function"
    },
    {
      "constant": false,
      "inputs": [
        {
          "name": "_rating",
          "type": "uint256"
        },
        {
          "name": "_hash",
          "type": "string"
        },
        {
          "name": "_review",
          "type": "string"
        }
      ],
      "name": "addReview",
      "outputs": [
        {
          "name": "",
          "type": "bool"
        }
      ],
      "payable": false,
      "stateMutability": "nonpayable",
      "type": "function"
    }
  ],
  "bytecode": "0x608060405234801561001057600080fd5b50336000806101000a81548173ffffffffffffffffffffffffffffffffffffffff021916908373ffffffffffffffffffffffffffffffffffffffff1602179055506040518060400160405280600581526020017f50697065720000000000000000000000000000000000000000000000000000008152506001908051906020019061009c9291906100a2565b50610147565b828054600181600116156101000203166002900490600052602060002090601f016020900481019282601f106100e357805160ff1916838001178555610111565b82800160010185558215610111579182015b828111156101105782518255916020019190600101906100f5565b5b50905061011e9190610122565b5090565b61014491905b80821115610140576000816000905550600101610128565b5090565b90565b610f09806101566000396000f3fe608060405234801561001057600080fd5b50600436106100415760003560e01c8063241430ac14610046578063fa16b9b614610076578063fe2e9d9d146100a6575b600080fd5b610060600480360361005b91908101906107e0565b6100d6565b60405161006d9190610c44565b60405180910390f35b610090600480360361008b919081019061079f565b610370565b60405161009d9190610c44565b60405180910390f35b6100c060048036036100bb919081019061084c565b6103ac565b6040516100cd9190610c44565b60405180910390f35b60006100e183610370565b6101f3578161016001516002846040516100fb9190610bfd565b9081526020016040518091039020908051906020019061011c929190610406565b503360038460405161012e9190610bfd565b908152602001604051809103902060006101000a81548173ffffffffffffffffffffffffffffffffffffffff021916908373ffffffffffffffffffffffffffffffffffffffff160217905550600160048460405161018c9190610bfd565b908152602001604051809103902060006101000a81548160ff0219169083151502179055507ffb6f6bc5eda11f63f97c9291c359177670c880a9516ca1423815c29e24f5dfc033836040516101e2929190610c14565b60405180910390a16001905061036a565b6003836040516102039190610bfd565b908152602001604051809103902060009054906101000a900473ffffffffffffffffffffffffffffffffffffffff1673ffffffffffffffffffffffffffffffffffffffff163373ffffffffffffffffffffffffffffffffffffffff161461026957600080fd5b6002836040516102799190610bfd565b90815260200160405180910390206040516102949190610be6565b6040518091039020826101600151805190602001201461032c578161016001516002846040516102c49190610bfd565b908152602001604051809103902090805190602001906102e5929190610406565b507f5952f3a9a3c07c15bf4f9c0052799748441f9edfc328a423623cbccf9261ddbd83836101600151846101a0015160405161032393929190610c5f565b60405180910390a15b7ffb6f6bc5eda11f63f97c9291c359177670c880a9516ca1423815c29e24f5dfc0338360405161035d929190610c14565b60405180910390a1600190505b92915050565b6000600115156004836040516103869190610bfd565b908152602001604051809103902060009054906101000a900460ff161515149050919050565b60006103b783610370565b6103c057600080fd5b7fc94edcc5b8fa90f8f1bf3e20a882627a4e17cefdae87b3d9fdbc0b1a84b8375d8484846040516103f393929190610cab565b60405180910390a1600190509392505050565b828054600181600116156101000203166002900490600052602060002090601f016020900481019282601f1061044757805160ff1916838001178555610475565b82800160010185558215610475579182015b82811115610474578251825591602001919060010190610459565b5b5090506104829190610486565b5090565b6104a891905b808211156104a457600081600090555060010161048c565b5090565b90565b600082601f8301126104bc57600080fd5b81356104cf6104ca82610d1d565b610cf0565b915080825260208301602083018583830111156104eb57600080fd5b6104f6838284610e4e565b50505092915050565b600082601f83011261051057600080fd5b813561052361051e82610d49565b610cf0565b9150808252602083016020830185838301111561053f57600080fd5b61054a838284610e4e565b50505092915050565b60006101c0828403121561056657600080fd5b6105716101c0610cf0565b905060006105818482850161078a565b600083015250602061059584828501610775565b60208301525060406105a984828501610775565b60408301525060606105bd84828501610775565b60608301525060806105d184828501610775565b60808301525060a082013567ffffffffffffffff8111156105f157600080fd5b6105fd848285016104ab565b60a08301525060c082013567ffffffffffffffff81111561061d57600080fd5b610629848285016104ab565b60c08301525060e082013567ffffffffffffffff81111561064957600080fd5b610655848285016104ab565b60e08301525061010082013567ffffffffffffffff81111561067657600080fd5b610682848285016104ab565b6101008301525061012082013567ffffffffffffffff8111156106a457600080fd5b6106b0848285016104ab565b6101208301525061014082013567ffffffffffffffff8111156106d257600080fd5b6106de848285016104ab565b6101408301525061016082013567ffffffffffffffff81111561070057600080fd5b61070c848285016104ab565b6101608301525061018082013567ffffffffffffffff81111561072e57600080fd5b61073a848285016104ab565b610180830152506101a082013567ffffffffffffffff81111561075c57600080fd5b610768848285016104ab565b6101a08301525092915050565b60008135905061078481610ea1565b92915050565b60008135905061079981610eb8565b92915050565b6000602082840312156107b157600080fd5b600082013567ffffffffffffffff8111156107cb57600080fd5b6107d7848285016104ff565b91505092915050565b600080604083850312156107f357600080fd5b600083013567ffffffffffffffff81111561080d57600080fd5b610819858286016104ff565b925050602083013567ffffffffffffffff81111561083657600080fd5b61084285828601610553565b9150509250929050565b60008060006060848603121561086157600080fd5b600061086f86828701610775565b935050602084013567ffffffffffffffff81111561088c57600080fd5b610898868287016104ff565b925050604084013567ffffffffffffffff8111156108b557600080fd5b6108c1868287016104ff565b9150509250925092565b6108d481610e18565b82525050565b6108e381610dd5565b82525050565b600081546001811660008114610906576001811461092b5761096f565b607f60028304166109178187610d9d565b955060ff198316865280860193505061096f565b600282046109398187610d9d565b955061094485610d75565b60005b8281101561096657815481890152600182019150602081019050610947565b82880195505050505b505092915050565b600061098282610d92565b61098c8185610db9565b935061099c818560208601610e5d565b6109a581610e90565b840191505092915050565b60006109bb82610d92565b6109c58185610dca565b93506109d5818560208601610e5d565b80840191505092915050565b60006109ec82610d87565b6109f68185610da8565b9350610a06818560208601610e5d565b610a0f81610e90565b840191505092915050565b6000610a2582610d87565b610a2f8185610db9565b9350610a3f818560208601610e5d565b610a4881610e90565b840191505092915050565b60006101c083016000830151610a6c6000860182610bd7565b506020830151610a7f6020860182610bb9565b506040830151610a926040860182610bb9565b506060830151610aa56060860182610bb9565b506080830151610ab86080860182610bb9565b5060a083015184820360a0860152610ad082826109e1565b91505060c083015184820360c0860152610aea82826109e1565b91505060e083015184820360e0860152610b0482826109e1565b915050610100830151848203610100860152610b2082826109e1565b915050610120830151848203610120860152610b3c82826109e1565b915050610140830151848203610140860152610b5882826109e1565b915050610160830151848203610160860152610b7482826109e1565b915050610180830151848203610180860152610b9082826109e1565b9150506101a08301518482036101a0860152610bac82826109e1565b9150508091505092915050565b610bc281610e01565b82525050565b610bd181610e01565b82525050565b610be081610e0b565b82525050565b6000610bf282846108e9565b915081905092915050565b6000610c0982846109b0565b915081905092915050565b6000604082019050610c2960008301856108cb565b8181036020830152610c3b8184610a53565b90509392505050565b6000602082019050610c5960008301846108da565b92915050565b60006060820190508181036000830152610c798186610977565b90508181036020830152610c8d8185610a1a565b90508181036040830152610ca18184610a1a565b9050949350505050565b6000606082019050610cc06000830186610bc8565b8181036020830152610cd28185610977565b90508181036040830152610ce68184610977565b9050949350505050565b6000604051905081810181811067ffffffffffffffff82111715610d1357600080fd5b8060405250919050565b600067ffffffffffffffff821115610d3457600080fd5b601f19601f8301169050602081019050919050565b600067ffffffffffffffff821115610d6057600080fd5b601f19601f8301169050602081019050919050565b60008160005260206000209050919050565b600081519050919050565b600081519050919050565b600081905092915050565b600082825260208201905092915050565b600082825260208201905092915050565b600081905092915050565b60008115159050919050565b600073ffffffffffffffffffffffffffffffffffffffff82169050919050565b6000819050919050565b600060ff82169050919050565b6000610e2382610e2a565b9050919050565b6000610e3582610e3c565b9050919050565b6000610e4782610de1565b9050919050565b82818337600083830152505050565b60005b83811015610e7b578082015181840152602081019050610e60565b83811115610e8a576000848401525b50505050565b6000601f19601f8301169050919050565b610eaa81610e01565b8114610eb557600080fd5b50565b610ec181610e0b565b8114610ecc57600080fd5b5056fea265627a7a7230582073a7c4eed8c4cb8e5b7fa91f43584b0778e91a56747b30263d3798b0f8d3710f6c6578706572696d656e74616cf50037",
  "source": "pragma solidity >=0.5.0 <0.6.0;\npragma experimental ABIEncoderV2;\n\ncontract Piper {\n  address owner;\n  string name;\n\n  struct Extension_ {\n    uint8 rating;\n    uint256 reviews;\n    uint256 downloads;\n    uint256 updated;\n    uint256 size;\n    string hash;\n    string developer;\n    string developerETH;\n    string name;\n    string overview;\n    string category;\n    string version;\n    string iconURL;\n    string crx;\n  }\n\n  mapping(string => string) versions;\n  mapping(string => address) developer;\n  mapping(string => bool) hasExtension;\n\n  constructor() public {\n    owner = msg.sender;\n    name = \"Piper\";\n  }\n\n  function isExtension(string memory _hash) public view returns(bool) {\n    return hasExtension[_hash] == true;\n  }\n\n  event Extension(address, Extension_);\n  event ExtensionVersion(string hash, string version, string crx);\n  event ExtensionReview(uint256 rating, string hash, string review);\n\n  function createNewExtension(string memory _hash, Extension_ memory _extension) public returns(bool) {\n    // Creating a new extension.\n    if (!isExtension(_hash)) {\n      // Create new extension.\n      versions[_hash] = _extension.version;\n      developer[_hash] = msg.sender;\n      hasExtension[_hash] = true;\n\n      emit Extension(msg.sender, _extension);\n\n      return true;\n    } else {\n      // Updating the extension.\n\n      // Check if extension owner is the one trying to edit it.\n      require(msg.sender == developer[_hash]);\n\n      // Check whether they are updating the version.\n      if (keccak256(bytes(_extension.version)) != keccak256(bytes(versions[_hash]))) {\n        versions[_hash] = _extension.version;\n\n        emit ExtensionVersion(_hash, _extension.version, _extension.crx);\n      }\n\n      emit Extension(msg.sender, _extension);\n\n      return true;\n    }\n  }\n\n  function addReview(uint256 _rating, string memory _hash, string memory _review) public returns(bool) {\n    require (isExtension(_hash));\n\n    emit ExtensionReview(_rating, _hash, _review);\n\n    return true;\n  }\n}\n",
  "sourcePath": "/home/robin/piper/contracts/Piper.sol",
  "compiler": {
    "name": "solc",
    "version": "0.5.8+commit.23d335f2.Emscripten.clang"
  },
  "schemaVersion": "3.0.11",
  "updatedAt": "2019-07-06T11:22:36.295Z",
  "devdoc": {
    "methods": {}
  },
  "userdoc": {
    "methods": {}
  }
}